:020000040000FA
:10000000681000209D010000A5010000A70100006C
:1000100000000000000000000000000000000000E0
:10002000000000000000000000000000A901000026
:100030000000000000000000AB010000AD01000066
:10004000AF010000AF010000AF010000AF010000F0
:10005000AF010000AF010000AF010000AF010000E0
:10006000AF010000AF010000AF010000AF010000D0
:10007000AF010000AF010000AF010000AF010000C0
:10008000AF010000AF010000AF010000AF010000B0
:10009000AF010000AF010000AF010000AF010000A0
:1000A000AF010000AF010000AF010000AF01000090
:1000B000AF010000AF010000AF010000AF01000080
:1000C00000F002F800F03EF80CA030C80838241800
:1000D0002D18A246671EAB4654465D46AC4201D180
:1000E00000F030F87E460F3E0FCCB6460126334274
:1000F00000D0FB1AA246AB4633431847E80A00007B
:10010000080B0000103A02D378C878C1FAD8520719
:1001100001D330C830C101D504680C6070470000BD
:100120000023002400250026103A01D378C1FBD813
:10013000520700D330C100D50B6070471FB51FBDFB
:1001400010B510BD00F0EAF81146FFF7F7FF00F018
:100150002FFD00F002F903B4FFF7F2FF03BC00F03B
:1001600009F9000070B505460C46164602E00FCCB2
:100170000FC5103E102EFAD2082E02D303CC03C5B1
:10018000083E042E07D301CC01C5361F03E02178B9
:100190002970641C6D1C761EF9D270BD074880471B
:1001A00007480047FEE7FEE7FEE7FEE7FEE7FEE75B
:1001B00004480549054A064B704700003D0A000007
:1001C000C1000000680000206810002068080020BE
:1001D00068080020FEB5054610460C46184373D04B
:1001E000AE468C460020AD1A01469C4167D3664658
:1001F000002701243D46B61A9D4102D313463A46D4
:100200002124654676462F04360C3E432D0CB61A43
:100210009D4104D3150C1B042B4312041034654676
:1002200076462F06360A3E432D0AB61A9D4104D360
:10023000150E1B022B4312020834654676462F0723
:1002400036093E432D09B61A9D4104D3150F1B01F3
:100250002B431201241D65467646AF07B6083E4380
:10026000AD08B61A9D4104D3950F9B002B43920015
:10027000A41C65467646EF0776083E436D08B61A1D
:100280009D411AD392185B41641C16E00018764613
:1002900065464941B71A9D410191009009D36046D6
:1002A000B11A98418E468446009801990025401C59
:1002B0006941DD0752082A435B08641EE6D5724691
:1002C000634603B0F0BDFFE700200146C046C046CC
:1002D0002A462346F5E701E004C0091F0429FBD2A2
:1002E0008B0701D50280801CC90700D002707047BF
:1002F00000290BD0C30702D00270401C491E0229FE
:1003000004D3830702D50280801C891EE3E7002204
:10031000EEE70022DFE7704770477047754600F050
:1003200025F8AE46050069465346C008C00085461C
:1003300018B020B5FFF73CFF60BC00274908B6465F
:100340000026C0C5C0C5C0C5C0C5C0C5C0C5C0C5E4
:10035000C0C5403D49008D46704710B50446C046B3
:10036000C0462046FFF7F7FE10BD0000004870476A
:100370000400002001491820ABBEFEE72600020061
:100380007047000010B50020002806D001210904A4
:10039000401A1BD0401A51D134E0494849490860FD
:1003A000002000F0C9F948480068000C4649098857
:1003B000C94389B2884202D14348006800E0302036
:1003C0004406640E204600F0C3F950E03F483D4922
:1003D0000860002000F0B0F93B484038C06B000CCA
:1003E00039494039898FC94389B2884203D1364897
:1003F0004038C06B00E02A204406640E204600F01E
:10040000A7F934E032482F490860002000F094F941
:100410002D484038806B000C2B494039098FC94367
:1004200089B2884203D128484038806B00E02720F9
:100430004406640E204600F08BF918E0204821495C
:100440000860002000F078F91F480068000C1E4981
:100450000988C94389B2884202D11B48006800E07C
:1004600030204406640E204600F072F900BF00BF41
:1004700000201849C968C908C9000143154AD1605C
:1004800000BF00BF1146C968072212029143014311
:10049000104AD16000BF00BF1146C968072212048C
:1004A000914301430B4AD16000BF00BF1146C968A8
:1004B0000722D20491430143064AD16000BF10BD18
:1004C00000127A000000002040FBFF1F0024F4000F
:1004D00000366E010002004010B5044603E07D20A6
:1004E000C00000F005F82046641E0028F7D110BDBA
:1004F00070B506460F480068314600F040FB0446E0
:100500000D4A0023FFF766FE0646012000068642DC
:1005100000D900E030460646701E084948610020B8
:10052000886100BF05480069C003C00F0028F9D0EA
:1005300070BD00000000002040420F0000E000E01D
:1005400000B585B014216846FFF7E3FE0120C00224
:100550000090022001900020029003906946074815
:1005600000F010F80420064909680909090101434F
:10057000034A116000BF05B000BD0000C00C004080
:10058000000E0040F0B502460B460024002100BFDB
:10059000634882420BD062484030824207D06048B4
:1005A0008030824203D05E48C030824201D10120B7
:1005B00000E00020002801D100BFFEE700BF00BF1F
:1005C0001868002805D9574D1868A84201D801209D
:1005D00000E00020002801D100BFFEE700BF00BFFF
:1005E0005868032808D05868002805D058680128A2
:1005F00002D05868022801D1012000E00020002824
:1006000001D100BFFEE700BF00BF9868012802D0FB
:100610009868002801D1012000E00020002801D1C5
:1006200000BFFEE700BF00BFD868002802D0D8682E
:10063000012801D1012000E00020002801D100BFE5
:10064000FEE700BF8020384DAD6A0543364EB562E7
:1006500000BF5FE00125A540186828400146002939
:1006600057D09868002806D100BF90688DB2A84383
:10067000906000BF06E000BF90688DB22843906094
:1006800000BF00BFD868002806D000BF50688DB2F8
:100690002843506000BF06E000BF50688DB2A843F9
:1006A000506000BF00BF5868032806D100BF906AA1
:1006B0008DB22843906200BF00BF5868022810D155
:1006C0001869012806D100BF106A8DB22843106254
:1006D00000BF06E000BF106A8DB2A843106200BFE1
:1006E00000BF5868002806D100BF10688DB22843AB
:1006F000106000BF00BF5868D5680E464E437700B3
:10070000F619B5430E464E4346433543D56000BF08
:1007100000BF641C1868E04000289BD10120F0BD98
:10072000000C0040FFFF00000002004082698BB215
:100730001A43826170470000044909690F221204BC
:1007400091430143014A11617047000000020040DB
:1007500003494969C909C9010143014A5161704707
:1007600000020040024600BF1C48106000BF8869BC
:10077000D368DB09DB010343D36000BF4869136919
:10078000DB09DB010343136100BF086953699B095F
:100790009B010343536100BF886893699B099B01D8
:1007A0000343936100BFC868D369DB08DB000343E0
:1007B000D36100BF4868136A5B095B01034313629E
:1007C00000BF0868536A1B0A1B020343536200BF41
:1007D00000BF0348106000BF01207047ACACACAC58
:1007E0005A5A5A5A024600BFD0684006400E8861E5
:1007F00000BF10694006400E486100BF5069800686
:10080000800E086100BF90698006800E886000BF7E
:10081000D0694007400FC86000BF106AC006C00E14
:10082000486000BF506AC0B20860012070470000F5
:1008300030B504460D4600BF0B48844201D101206B
:1008400000E00020002801D100BFFEE700BF042027
:100850000649896A0143054A916200BF294620463C
:10086000FFF780FF012030BD001001400002004072
:1008700010B586B00524142101A8FFF74AFD012117
:100880001248FFF753FF01200190029000200390CF
:10089000049001A90D48FFF775FE10E001210B48F7
:1008A000FFF744FF6420FFF717FE0120074949695D
:1008B0000143064A516100BF6420FFF70DFE204648
:1008C000611ECCB20028E9D106B010BD800C0040FA
:1008D00000B585B014216846FFF71BFD04201149BF
:1008E000896A01430F4A916200BF00200E49096BDB
:1008F000490A490201430C4A116300BF0420094917
:10090000896A8143074A916200BFFF2081300090CD
:10091000022001900120039069460448FFF732FE4F
:1009200005B000BD0002004000100140C00C0040B6
:1009300070477047F0B58FB006460127002522E0CA
:1009400008A91448FFF74EFF01A91248FFF74AFF14
:1009500000240AE0A00008A90858A10001AA5158E3
:10096000884200D003E0601CC4B2072CF2DB00BF59
:10097000072C06D100271C2208A93046FFF7F2FBFE
:1009800003E0681CC5B2032DDADB00BF38460FB0A8
:10099000F0BD00000010014000B587B0202000909D
:1009A000022001902120029004200390092004904D
:1009B00000200590069069460748FFF739FF02209E
:1009C000002805DBC206D20E01219140034A1160C6
:1009D00000BF07B000BD00000010014080E100E052
:1009E000F0B587B0054600261FE029461248FFF7FC
:1009F000B9FE6846FFF79EFF0746002F13D1012777
:100A0000002409E0A00069460858A10069588842FE
:100A100000D003E0601CC4B2072CF3DB00BF072C3E
:100A200001D1002703E0701CC6B2032EDDDB00BF3E
:100A3000384607B0F0BD0000001001402E4908689C
:100A4000010C0140002903D14106490E2B4A516196
:100A500029494868010C4140C9B2FF2904D1410627
:100A6000490E264A4032916223494039086A010CF6
:100A70004140C9B2FF2902D1C1B2204A116200210E
:100A80001E4A916105214906D1601146896A80227A
:100A900011431A4A91621A49C9680F2292041143FC
:100AA000174AD1600021154A51621146496A052250
:100AB00012021143114A51627D20000100E0401EE4
:100AC0000028FCD1AA210D4A91631146C9689204FD
:100AD00011430A4AD1600B49096801221143094AAE
:100AE000116011464968FE221140064A51600321F7
:100AF000D20451607047000040FBFF1F000200401D
:100B0000C00C004000A80140C0200749C968C022AD
:100B100091430143044AD16000BF044800690121A8
:100B200008430249086170470002004000E000E00D
:100B300000B58FB0FFF730FF202008900220099009
:100B400021200A9004200B9015200C9000200D907D
:100B50000E9008A8FFF744FF7D20C000FFF7BCFC03
:100B600001A8FFF7E7FE0FB000BD10B5FFF70AFCC4
:100B7000FFF7CAFFFFF77CFEFFF7E2FC10BDF8B5F8
:100B800082B28BB2040C0D0C10465843002126464D
:100B90005E43370C36048019794116466E43370C94
:100BA00036048019794126466E438919F8BD000044
:100BB000FFF78EFEFFF7BDFEFFF7BAFEFFF7D5FF8A
:100BC000FFF7B6FF0AE00120054909694140044AE0
:100BD000116100BF7D20C000FFF77EFCF3E700003D
:100BE000800C0040040C0000000000200400000005
:100BF00004010000080C0000040000206410000044
:080C00002001000000000000CB
:04000005000000C136
:00000001FF
