:020000040000FA
:1000000068100020650100006D0100006F01000014
:1000100000000000000000000000000000000000E0
:10002000000000000000000000000000710100005E
:1000300000000000000000007301000075010000D6
:10004000B90A000077010000770100007701000085
:1000500077010000770100007701000077010000C0
:1000600077010000770100007701000077010000B0
:1000700077010000770100007701000077010000A0
:100080007701000077010000770100007701000090
:100090007701000077010000770100007701000080
:1000A0007701000077010000770100007701000070
:1000B0007701000077010000770100007701000060
:1000C00000F002F800F03EF80CA030C80838241800
:1000D0002D18A246671EAB4654465D46AC4201D180
:1000E00000F030F87E460F3E0FCCB6460126334274
:1000F00000D0FB1AA246AB46334318479C0A0000C7
:10010000BC0A0000103A02D378C878C1FAD8520766
:1001100001D330C830C101D504680C6070470000BD
:100120000023002400250026103A01D378C1FBD813
:10013000520700D330C100D50B6070471FB51FBDFB
:1001400010B510BD00F0CEF81146FFF7F7FF00F034
:1001500009FD00F0E6F803B4FFF7F2FF03BC00F07E
:10016000EDF800000748804707480047FEE7FEE734
:10017000FEE7FEE7FEE7FEE704480549054A064BB1
:1001800070470000A9090000C100000068000020BD
:10019000681000206808002068080020FEB50546A9
:1001A00010460C46184373D0AE468C460020AD1A5C
:1001B00001469C4167D36646002701243D46B61A96
:1001C0009D4102D313463A462124654676462F04C4
:1001D000360C3E432D0CB61A9D4104D3150C1B045E
:1001E0002B4312041034654676462F06360A3E43EA
:1001F0002D0AB61A9D4104D3150E1B022B43120281
:100200000834654676462F0736093E432D09B61A4F
:100210009D4104D3150F1B012B431201241D65467C
:100220007646AF07B6083E43AD08B61A9D4104D3E3
:10023000950F9B002B439200A41C65467646EF0762
:1002400076083E436D08B61A9D411AD392185B4159
:10025000641C16E00018764665464941B71A9D4170
:100260000191009009D36046B11A98418E468446A8
:10027000009801990025401C6941DD0752082A4376
:100280005B08641EE6D57246634603B0F0BDFFE727
:1002900000200146C046C0462A462346F5E701E055
:1002A00004C0091F0429FBD28B0701D50280801CE2
:1002B000C90700D00270704700290BD0C30702D0D5
:1002C0000270401C491E022904D3830702D5028014
:1002D000801C891EE3E70022EEE70022DFE770477B
:1002E00070477047754600F025F8AE460500694630
:1002F0005346C008C000854618B020B5FFF73CFF44
:1003000060BC00274908B6460026C0C5C0C5C0C5A8
:10031000C0C5C0C5C0C5C0C5C0C5403D49008D46AB
:10032000704710B50446C046C0462046FFF713FF8D
:1003300010BD00000048704704000020014918204B
:10034000ABBEFEE7260002007047000010B500209B
:10035000002806D001210904401A1BD0401A51D1AF
:1003600034E0494849490860002000F01FFA484835
:100370000068000C46490988C94389B2884202D105
:100380004348006800E030204406640E204600F038
:1003900019FA50E03F483D490860002000F006FA95
:1003A0003B484038C06B000C39494039898FC943FC
:1003B00089B2884203D136484038C06B00E02A2019
:1003C0004406640E204600F0FDF934E032482F491F
:1003D0000860002000F0EAF92D484038806B000CDE
:1003E0002B494039098FC94389B2884203D1284833
:1003F0004038806B00E027204406640E204600F061
:10040000E1F918E0204821490860002000F0CEF909
:100410001F480068000C1E490988C94389B28842F8
:1004200002D11B48006800E030204406640E2046DC
:1004300000F0C8F900BF00BF00201849C968C9080A
:10044000C9000143154AD16000BF00BF1146C96809
:100450000722120291430143104AD16000BF00BF3E
:100460001146C96807221204914301430B4AD16027
:1004700000BF00BF1146C9680722D204914301435F
:10048000064AD16000BF10BD00127A0000000020B3
:1004900040FBFF1F0024F40000366E010002004004
:1004A00010B5044603E07D20C00000F005F82046AA
:1004B000641E0028F7D110BD70B506460F480068CD
:1004C000314600F037FB04460D4A0023FFF766FE75
:1004D000064601200006864200D900E03046064666
:1004E000701E084948610020886100BF0548006906
:1004F000C003C00F0028F9D070BD0000000000202C
:1005000040420F0000E000E000B585B014216846CD
:10051000FFF7E3FE0120C0020090022001900020BE
:10052000029003906946074800F056F804200649F7
:100530000968090909010143034A116000BF05B0B8
:1005400000BD0000C00C0040000E004000B585B0AA
:1005500014216846FFF7C1FE684600F01BF9012030
:100560000290019019491A4800F00FF917491848EC
:10057000403000F00AF915491548803000F005F9BF
:1005800014491348C03000F000F96946104800F0E3
:1005900023F869460E48403000F01EF869460C48C2
:1005A000803000F019F869460948C03000F014F8AE
:1005B000FF208130009002200190012003906946C5
:1005C0000348C03000F008F805B000BDFFFF000090
:1005D000000C00407FFE0000F0B502460B460024F0
:1005E000002100BF634882420BD062484030824203
:1005F00007D060488030824203D05E48C0308242DB
:1006000001D1012000E00020002801D100BFFEE759
:1006100000BF00BF1868002805D9574D1868A842C8
:1006200001D8012000E00020002801D100BFFEE732
:1006300000BF00BF5868032808D05868002805D0BC
:100640005868012802D05868022801D1012000E032
:100650000020002801D100BFFEE700BF00BF98685E
:10066000012802D09868002801D1012000E0002074
:10067000002801D100BFFEE700BF00BFD8680028F6
:1006800002D0D868012801D1012000E00020002814
:1006900001D100BFFEE700BF8020384DAD6A0543A1
:1006A000364EB56200BF5FE00125A54018682840BE
:1006B0000146002957D09868002806D100BF9068ED
:1006C0008DB2A843906000BF06E000BF90688DB275
:1006D0002843906000BF00BFD868002806D000BF44
:1006E00050688DB22843506000BF06E000BF5068DC
:1006F0008DB2A843506000BF00BF5868032806D1E0
:1007000000BF906A8DB22843906200BF00BF586856
:10071000022810D11869012806D100BF106A8DB2D5
:100720002843106200BF06E000BF106A8DB2A843E4
:10073000106200BF00BF5868002806D100BF1068D3
:100740008DB22843106000BF00BF5868D5680E46C0
:100750004E437700F619B5430E464E4346433543A4
:10076000D56000BF00BF641C1868E04000289BD122
:100770000120F0BD000C0040FFFF0000000200401F
:1007800082698BB21A438261704742698BB21A4305
:10079000426170470449016000214160012181608C
:1007A0000021C16001617047FFFF00000449096931
:1007B0000F22120491430143014A11617047000066
:1007C0000002004003494969C909C9010143014ABE
:1007D000516170470002004030B50246012300BF5E
:1007E0001F48824201D1012000E00020002801D1F1
:1007F00000BFFEE700BF00BF0868002814D00868EB
:10080000012811D0086802280ED0086803280BD0F0
:100810000868042808D00868052805D00868062854
:1008200002D00868072801D1012000E0002000283C
:1008300001D100BFFEE700BF80200A4CE46A0443F8
:10084000084DEC6200BF08685468E408E400044303
:10085000546000BF00BF5A20106000BF184630BD72
:10086000001801400002004010B586B00524142194
:1008700001A8FFF732FD01211248FFF781FF012097
:100880000190029000200390049001A90D48FFF709
:10089000A3FE10E001210B48FFF772FF6420FFF771
:1008A000FFFD0120074949690143064A516100BF24
:1008B0006420FFF7F5FD2046611ECCB20028E9D187
:1008C00006B010BD800C004000B585B0142168460C
:1008D000FFF703FD04201249896A0143104A91621F
:1008E00000BF00200F49096B490A490201430D4A24
:1008F000116300BF04200A49896A8143084A916252
:1009000000BFFF2081300090022001900120039061
:1009100069460548FFF760FEFFF718FE05B000BD09
:100920000002004000100140C00C004070477047BA
:1009300010B5002819DB1A4A03231B02D2188308BA
:100940009B00D2588307DC0EFF23A3409A438B07FA
:100950001B0E8407E40EA3401A43114B0324240208
:100960001B198408A4001A5118E00E4A03071B0F34
:10097000083B9B089B00D2588307DC0EFF23A34053
:100980009A438B071B0E8407E40EA3401A43054BC2
:100990000407240F083CA408A4001A5110BD00004D
:1009A00000E100E01CED00E02E490868010C014068
:1009B000002903D14106490E2B4A51612949486853
:1009C000010C4140C9B2FF2904D14106490E264A13
:1009D0004032916223494039086A010C4140C9B252
:1009E000FF2902D1C1B2204A116200211E4A916141
:1009F00005214906D1601146896A802211431A4AAD
:100A000091621A49C9680F2292041143174AD160B2
:100A10000021154A51621146496A0522120211430A
:100A2000114A51627D20000100E0401E0028FCD1E7
:100A3000AA210D4A91631146C968920411430A4ADA
:100A4000D1600B49096801221143094A116011461E
:100A50004968FE221140064A51600321D2045160C8
:100A60007047000040FBFF1F00020040C00C004028
:100A700000A80140C0200749C968C0229143014332
:100A8000044AD16000BF04480069012108430249BB
:100A9000086170470002004000E000E010B500F07F
:100AA00017F810BD10B5FFF751FCFFF7E3FFFFF794
:100AB000DBFEFFF729FD10BD00BF012003490861DF
:100AC00000BF00BFAC20086000BF704700180140A5
:100AD00008B5072000900020002805DBC206D20ED2
:100AE00001219140114A116000BF02210020FFF74F
:100AF0001FFF0020002806DBC206D20E0121914014
:100B00000A4A803A116000BF00BF0120084908610D
:100B100000BF00BF0846C068012108430449C860FF
:100B200000BF69460248FFF757FE08BD80E100E0BC
:100B300000180140F8B582B28BB2040C0D0C1046BF
:100B40005843002126465E43370C3604801979410C
:100B500016466E43370C36048019794126466E439B
:100B60008919F8BDFFF7B0FEFFF7E1FEFFF7DEFEE3
:100B7000FFF798FFFFF792FF0AE001200549096996
:100B80004140044A116100BFFF20F530FFF788FCA7
:100B9000F3E70000800C0040B80B000000000020CC
:100BA0000400000004010000BC0B00000400002051
:0C0BB000641000002001000000000000A4
:04000005000000C136
:00000001FF
