:020000040000FA
:1000000068100020650100006D0100006F01000014
:1000100000000000000000000000000000000000E0
:10002000000000000000000000000000710100005E
:1000300000000000000000007301000075010000D6
:1000400077010000770100007701000077010000D0
:1000500077010000770100007701000077010000C0
:1000600077010000770100007701000077010000B0
:1000700077010000770100007701000077010000A0
:100080007701000077010000770100007701000090
:100090007701000077010000770100007701000080
:1000A0007701000077010000770100007701000070
:1000B0007701000077010000770100007701000060
:1000C00000F002F800F03EF80CA030C80838241800
:1000D0002D18A246671EAB4654465D46AC4201D180
:1000E00000F030F87E460F3E0FCCB6460126334274
:1000F00000D0FB1AA246AB4633431847EC11000070
:100100000C120000103A02D378C878C1FAD852070E
:1001100001D330C830C101D504680C6070470000BD
:100120000023002400250026103A01D378C1FBD813
:10013000520700D330C100D50B6070471FB51FBDFB
:1001400010B510BD00F0CEF81146FFF7F7FF01F033
:10015000BFF800F0E6F803B4FFF7F2FF03BC00F0CD
:10016000EDF800000748804707480047FEE7FEE734
:10017000FEE7FEE7FEE7FEE704480549054A064BB1
:100180007047000099110000C100000068000020C5
:10019000681000206808002068080020FEB50546A9
:1001A00010460C46184373D0AE468C460020AD1A5C
:1001B00001469C4167D36646002701243D46B61A96
:1001C0009D4102D313463A462124654676462F04C4
:1001D000360C3E432D0CB61A9D4104D3150C1B045E
:1001E0002B4312041034654676462F06360A3E43EA
:1001F0002D0AB61A9D4104D3150E1B022B43120281
:100200000834654676462F0736093E432D09B61A4F
:100210009D4104D3150F1B012B431201241D65467C
:100220007646AF07B6083E43AD08B61A9D4104D3E3
:10023000950F9B002B439200A41C65467646EF0762
:1002400076083E436D08B61A9D411AD392185B4159
:10025000641C16E00018764665464941B71A9D4170
:100260000191009009D36046B11A98418E468446A8
:10027000009801990025401C6941DD0752082A4376
:100280005B08641EE6D57246634603B0F0BDFFE727
:1002900000200146C046C0462A462346F5E701E055
:1002A00004C0091F0429FBD28B0701D50280801CE2
:1002B000C90700D00270704700290BD0C30702D0D5
:1002C0000270401C491E022904D3830702D5028014
:1002D000801C891EE3E70022EEE70022DFE770477B
:1002E00070477047754600F025F8AE460500694630
:1002F0005346C008C000854618B020B5FFF73CFF44
:1003000060BC00274908B6460026C0C5C0C5C0C5A8
:10031000C0C5C0C5C0C5C0C5C0C5403D49008D46AB
:10032000704710B50446C046C0462046FFF713FF8D
:1003300010BD00000048704704000020014918204B
:10034000ABBEFEE7260002007047000000B5A1B07A
:1003500014216846FFF7C1FF102000900220019091
:1003600000200290039004906946364800F0CAFCD1
:1003700004200090022001900020029003900120B0
:10038000049069462F4800F0BDFC0120C002009097
:100390000220019001200290049069462948803093
:1003A00000F0B0FC00201A9027481B9000201C9001
:1003B00026481D9000201F90209001201E901AA911
:1003C000234800F079FA60201090002018901490D3
:1003D000FF20F5301690002012901590FF2001307C
:1003E000179040001990002013900120119010AA3E
:1003F0000021174800F020FB0A20089000200790F9
:10040000059006900A90012040030B9000200C906C
:10041000FF2001300D9040000E9000200F900990B9
:1004200005A90B4800F016F9094800F03BFA00BF97
:100430000748406C0121C90308430549486400BFCF
:1004400021B000BD400C00403F1F0000E70300004A
:1004500000B0014010B50020002806D00121090499
:10046000401A1BD0401A51D134E04948494908602C
:10047000002000F041FD48480068000C464909880A
:10048000C94389B2884202D14348006800E0302065
:100490004406640E204600F03BFD50E03F483D49D5
:1004A0000860002000F028FD3B484038C06B000C7D
:1004B00039494039898FC94389B2884203D13648C6
:1004C0004038C06B00E02A204406640E204600F04D
:1004D0001FFD34E032482F490860002000F00CFD79
:1004E0002D484038806B000C2B494039098FC94397
:1004F00089B2884203D128484038806B00E0272029
:100500004406640E204600F003FD18E0204821490F
:100510000860002000F0F0FC1F480068000C1E4935
:100520000988C94389B2884202D11B48006800E0AB
:1005300030204406640E204600F0EAFC00BF00BFF5
:1005400000201849C968C908C9000143154AD1608B
:1005500000BF00BF1146C968072212029143014340
:10056000104AD16000BF00BF1146C96807221204BB
:10057000914301430B4AD16000BF00BF1146C968D7
:100580000722D20491430143064AD16000BF10BD47
:1005900000127A000000002040FBFF1F0024F4003E
:1005A00000366E010002004010B5044603E07D20D5
:1005B000C00000F005F82046641E0028F7D110BDE9
:1005C00070B506460F480068314600F069FE0446E3
:1005D0000D4A0023FFF7E2FD064601200006864291
:1005E00000D900E030460646701E084948610020E8
:1005F000886100BF05480069C003C00F0028F9D01A
:1006000070BD00000000002040420F0000E000E04C
:1006100000B585B014216846FFF75FFE0120C002D7
:100620000090022001900020029003906946074844
:1006300000F068FB04200649096809090901014323
:10064000034A116000BF05B000BD0000C00C0040AF
:10065000000E004070B505460C46012600BF8C48D0
:10066000854201D1012000E00020002801D100BF17
:10067000FEE700BF00BF2068002804D00121C902A6
:100680002068884201D1012000E00020002801D12B
:1006900000BFFEE700BF00BF6068002804D0012152
:1006A00089026068884201D1012000E00020002812
:1006B00001D100BFFEE700BF00BFA06800280DD039
:1006C000FF210131A068884208D04900A068884213
:1006D00004D003210902A068884201D1012000E072
:1006E0000020002801D100BFFEE700BF00BFA069C5
:1006F000002804D001214903A069884201D10120CA
:1007000000E00020002801D100BFFEE700BF00BFCD
:10071000E069002802D0E069012801D1012000E051
:100720000020002801D100BFFEE700BF00BF6069C4
:1007300000282CD06069102829D06069202826D094
:100740006069302823D06069402820D06069502833
:100750001DD0606960281AD06069702817D0606960
:10076000802814D06069902811D06069A0280ED02C
:100770006069B0280BD06069C02808D06069D028B3
:1007800005D06069E02802D06069F02801D101201D
:1007900000E00020002801D100BFFEE700BF00BF3D
:1007A000686C0121C9038843686400BFE068696C14
:1007B000090A09020143696400BFA068696C032249
:1007C000120291430143696400BF6068696C0122B1
:1007D000920291430143696400BF2068696C520032
:1007E00091430143696400BF206A296ED21091438E
:1007F0000143296600BF606A296E5200914301439C
:10080000296600BFA06A296E082291430143296628
:1008100000BFA069696C920291430143696400BF03
:10082000E069012806D100BF686C51000843686484
:1008300000BF07E000BF686C01218903884368643A
:1008400000BF00BF2069012807D100BF686C0121EB
:1008500009030843686400BF07E000BF686C01211A
:1008600009038843686400BF00BF00BF686C0121B2
:10087000C9030843686400BF284600F018F800BFA9
:10088000686920210843686100BF304670BD0000E0
:1008900000B0014010B5026A8C000123A3409A43C6
:1008A000026210BD01680122114301607047416975
:1008B000012211434161704770B505460C4600BFE7
:1008C0005B48854201D1012000E00020002801D1D1
:1008D00000BFFEE700BF00BFA06800280BD0A068E3
:1008E000102808D0A068202805D0A068402802D091
:1008F000A068602801D1012000E00020002801D17B
:1009000000BFFEE700BF00BF6069002808D0FF21DC
:1009100001316069884203D049006069884201D191
:10092000012000E00020002801D100BFFEE700BF49
:1009300000BF2069012802D02069002801D10120D0
:1009400000E00020002801D100BFFEE700BF00BF8B
:100950002068002805D02068402802D02068C028E0
:1009600001D1012000E00020002801D100BFFEE7F6
:1009700000BF20682F49C96AC022914301432D4A14
:10098000D16200BF102000F0AFFA0120C00300F0D8
:10099000A3FAA069296B090A09020143296300BF70
:1009A000A068202804D0402803D0602807D101E0A7
:1009B00000BF00BF2846A16800F057F90BE0A0680F
:1009C0002968102291430143296000BF0021284675
:1009D00000F04BF900BF00BFE068E96A090C0904A8
:1009E0000143E96200BF6069296803221202914352
:1009F0000143296000BF6068A96A090C090401432A
:100A0000A96200BF2069012806D100BF28688021A3
:100A10000843286000BF06E000BF286880218843A3
:100A2000286000BF00BF2846FFF741FF012070BDCE
:100A300000B0014040020040F8B506460D4614469D
:100A4000012700BF7A48864201D1012000E0002042
:100A5000002801D100BFFEE700BF00BF20680028CA
:100A600014D02068102811D0206820280ED02068CB
:100A700030280BD02068402808D02068502805D0A6
:100A80002068602802D02068702801D1012000E091
:100A90000020002801D100BFFEE700BF00BF606951
:100AA000012802D06069002801D1012000E0002067
:100AB000002801D100BFFEE700BF00BFA0680028EA
:100AC00002D0A068022801D1012000E00020002807
:100AD00001D100BFFEE700BF00BF2069012802D09E
:100AE0002069002801D1012000E00020002801D168
:100AF00000BFFEE700BF00BF206A012802D0206AC5
:100B0000002801D1012000E00020002801D100BF11
:100B1000FEE700BF00BF6068012802D060680028BF
:100B200001D1012000E00020002801D100BFFEE734
:100B300000BF00BFE069002804D0FF210131E06957
:100B4000884201D1012000E00020002801D100BF2F
:100B5000FEE700BF00BF606A002804D001214902FF
:100B6000606A884201D1012000E00020002801D104
:100B700000BFFEE700BF00BFE068002802D0E068C9
:100B8000082801D1012000E00020002801D100BF89
:100B9000FEE700BF29463046FFF77CFE00BF306A03
:100BA000AA00042191408843306200BFA068316AE6
:100BB000AB0002229A409143AB0002469A40114397
:100BC000316200BFE0697168FF220132AA4091439F
:100BD0000143716000BF606A716801225202AA403D
:100BE00091430143716000BFE068316AAB000822A5
:100BF0009A409143AB0002469A401143316200BFD4
:100C00002A460021304600F015F822462946304693
:100C100000F0ECF900BF306AAA00012191400843BE
:100C2000306200BF3046FFF742FE3846F8BD000094
:100C300000B0014030B5022A0AD28369D5000324EE
:100C4000AC40A343D5000C46AC40234383610BE08A
:100C5000C369941EE5000324AC40A343941EE50041
:100C60000C46AC402343C36130BD026860239A4305
:100C70000A4302607047000000B585B01421684641
:100C8000FFF72BFB684600F01BF901200290019052
:100C900019491A4800F00FF917491848403000F078
:100CA0000AF915491548803000F005F91449134830
:100CB000C03000F000F96946104800F023F869469A
:100CC0000E48403000F01EF869460C48803000F0B5
:100CD00019F869460948C03000F014F8FF20813047
:100CE0000090022001900120039069460348C03023
:100CF00000F008F805B000BDFFFF0000000C004048
:100D00007FFE0000F0B502460B460024002100BF24
:100D1000634882420BD062484030824207D060482C
:100D20008030824203D05E48C030824201D101202F
:100D300000E00020002801D100BFFEE700BF00BF97
:100D40001868002805D9574D1868A84201D8012015
:100D500000E00020002801D100BFFEE700BF00BF77
:100D60005868032808D05868002805D0586801281A
:100D700002D05868022801D1012000E0002000289C
:100D800001D100BFFEE700BF00BF9868012802D074
:100D90009868002801D1012000E00020002801D13E
:100DA00000BFFEE700BF00BFD868002802D0D868A7
:100DB000012801D1012000E00020002801D100BF5E
:100DC000FEE700BF8020384DAD6A0543364EB56260
:100DD00000BF5FE00125A5401868284001460029B2
:100DE00057D09868002806D100BF90688DB2A843FC
:100DF000906000BF06E000BF90688DB2284390600D
:100E000000BF00BFD868002806D000BF50688DB270
:100E10002843506000BF06E000BF50688DB2A84371
:100E2000506000BF00BF5868032806D100BF906A19
:100E30008DB22843906200BF00BF5868022810D1CD
:100E40001869012806D100BF106A8DB228431062CC
:100E500000BF06E000BF106A8DB2A843106200BF59
:100E600000BF5868002806D100BF10688DB2284323
:100E7000106000BF00BF5868D5680E464E4377002B
:100E8000F619B5430E464E4346433543D56000BF81
:100E900000BF641C1868E04000289BD10120F0BD11
:100EA000000C0040FFFF00000002004082698BB28E
:100EB0001A438261704742698BB21A43426170479C
:100EC0000449016000214160012181600021C1606D
:100ED00001617047FFFF00000249C96A0143014AEE
:100EE000D1627047400200400249496B0143014A08
:100EF0005163704700020040044909690F2212043F
:100F000091430143014A1161704700000002004013
:100F100003494969C909C9010143014A516170473F
:100F20000002004010B586B00524142101A8FFF787
:100F3000D4F901211248FFF7B9FF01200190029076
:100F400000200390049001A90D48FFF7DBFE10E09C
:100F500001210B48FFF7AAFF6420FFF725FB0120C2
:100F6000074949690143064A516100BF6420FFF700
:100F70001BFB2046611ECCB20028E9D106B010BD93
:100F8000800C004000B585B014216846FFF7A5F934
:100F900004201249896A0143104A916200BF00206F
:100FA0000F49096B490A490201430D4A116300BF09
:100FB00004200A49896A8143084A916200BFFF20E0
:100FC000813000900220019001200390694605487D
:100FD000FFF798FEFFF750FE05B000BD000200408D
:100FE00000100140C00C004070477047F8B5034640
:100FF000012000900846146802280AD29D69C700A3
:101000007026BE40B543C6002746B7403D439D61AC
:101010000BE0DD69861EF7007026BE40B543861ED4
:10102000F6002746B7403D43DD6100BF106A012846
:1010300012D10846022806D29C69C6008025B54018
:101040002C439C6106E0DC69851EEE008025B540DE
:101050002C43DC6100BF12E00846022806D29D69DD
:10106000C6008024B440A5439D6106E0DC69851E6E
:10107000EE008025B540AC43DC6100BF00BF1069C5
:10108000012812D10846022806D29C69C600042510
:10109000B5402C439C6106E0DC69851EEE0004250A
:1010A000B5402C43DC6100BF12E00846022806D29E
:1010B0009D69C6000424B440A5439D6106E0DC6937
:1010C000851EEE000425B540AC43DC6100BF00BFC7
:1010D0005069012812D10846022806D29C69C60030
:1010E0000825B5402C439C6106E0DC69851EEE00B6
:1010F0000825B5402C43DC6100BF12E008460228F9
:1011000006D29D69C6000824B440A5439D6106E04F
:10111000DC69851EEE000825B540AC43DC6100BFEC
:1011200000BF5068012808D100BF186A8D00042450
:10113000AC402043186200BF00BF002906D001293F
:101140000CD0022912D0032920D117E090695C6BE2
:10115000240C240404435C6300BF1AE090699C6B78
:10116000240C240404439C6300BF12E09069DC6BF0
:10117000240C24040443DC6300BF0AE090691C6C67
:10118000240C240404431C6400BF02E000200090EF
:1011900000BF00BF0098F8BD2E490868010C01404F
:1011A000002903D14106490E2B4A5161294948685B
:1011B000010C4140C9B2FF2904D14106490E264A1B
:1011C0004032916223494039086A010C4140C9B25A
:1011D000FF2902D1C1B2204A116200211E4A916149
:1011E00005214906D1601146896A802211431A4AB5
:1011F00091621A49C9680F2292041143174AD160BB
:101200000021154A51621146496A05221202114312
:10121000114A51627D20000100E0401E0028FCD1EF
:10122000AA210D4A91631146C968920411430A4AE2
:10123000D1600B49096801221143094A1160114626
:101240004968FE221140064A51600321D2045160D0
:101250007047000040FBFF1F00020040C00C004030
:1012600000A80140C0200749C968C022914301433A
:10127000044AD16000BF04480069012108430249C3
:10128000086170470002004000E000E010B5FFF781
:10129000E1F8FFF7E7FFFFF745FEFFF7B9F910BDEB
:1012A000F8B582B28BB2040C0D0C104658430021E5
:1012B00026465E43370C36048019794116466E4344
:1012C000370C36048019794126466E438919F8BDDA
:1012D000FFF758FEFFF789FEFFF786FEFFF7D6FF00
:1012E000FFF734F800BFFEE70813000000000020FD
:1012F00004000000040100000C13000004000020A2
:0C1300006410000020010000000000004C
:04000005000000C136
:00000001FF
