:020000040000FA
:1000000088100020650100006D0100006F010000F4
:1000100000000000000000000000000000000000E0
:10002000000000000000000000000000710100005E
:1000300000000000000000007301000075010000D6
:1000400077010000770100007701000077010000D0
:1000500077010000770100007701000077010000C0
:1000600077010000770100007701000077010000B0
:1000700077010000770100007701000077010000A0
:100080007701000077010000770100007701000090
:100090007701000077010000770100007701000080
:1000A0007701000077010000770100007701000070
:1000B0007701000077010000770100007701000060
:1000C00000F002F800F03EF80CA030C80838241800
:1000D0002D18A246671EAB4654465D46AC4201D180
:1000E00000F030F87E460F3E0FCCB6460126334274
:1000F00000D0FB1AA246AB463343184770250000D8
:1001000090250000103A02D378C878C1FAD8520777
:1001100001D330C830C101D504680C6070470000BD
:100120000023002400250026103A01D378C1FBD813
:10013000520700D330C100D50B6070471FB51FBDFB
:1001400010B510BD00F0B7FE1146FFF7F7FF02F043
:10015000EDF900F0CFFE03B4FFF7F2FF03BC00F0AF
:10016000D5FE00000748804707480047FEE7FEE746
:10017000FEE7FEE7FEE7FEE704480549054A064BB1
:1001800070470000D9230000C10000008800002053
:10019000881000208808002088080020FEB5054649
:1001A00010460C46184373D0AE468C460020AD1A5C
:1001B00001469C4167D36646002701243D46B61A96
:1001C0009D4102D313463A462124654676462F04C4
:1001D000360C3E432D0CB61A9D4104D3150C1B045E
:1001E0002B4312041034654676462F06360A3E43EA
:1001F0002D0AB61A9D4104D3150E1B022B43120281
:100200000834654676462F0736093E432D09B61A4F
:100210009D4104D3150F1B012B431201241D65467C
:100220007646AF07B6083E43AD08B61A9D4104D3E3
:10023000950F9B002B439200A41C65467646EF0762
:1002400076083E436D08B61A9D411AD392185B4159
:10025000641C16E00018764665464941B71A9D4170
:100260000191009009D36046B11A98418E468446A8
:10027000009801990025401C6941DD0752082A4376
:100280005B08641EE6D57246634603B0F0BDFFE727
:1002900000200146C046C0462A462346F5E701E055
:1002A00004C0091F0429FBD28B0701D50280801CE2
:1002B000C90700D00270704700290BD0C30702D0D5
:1002C0000270401C491E022904D3830702D5028014
:1002D000801C891EE3E70022EEE70022DFE7002210
:1002E00003098B422CD3030A8B4211D300239C4673
:1002F0004EE003460B433CD4002243088B4231D3EB
:1003000003098B421CD3030A8B4201D394463FE07E
:10031000C3098B4201D3CB01C01A524183098B42DE
:1003200001D38B01C01A524143098B4201D34B01C7
:10033000C01A524103098B4201D30B01C01A52412A
:10034000C3088B4201D3CB00C01A524183088B42B1
:1003500001D38B00C01A524143088B4201D34B009A
:10036000C01A5241411A00D201465241104670470C
:100370005DE0CA0F00D04942031000D34042534011
:1003800000229C4603098B422DD3030A8B4212D3D1
:10039000FC22890112BA030A8B420CD38901921103
:1003A0008B4208D3890192118B4204D389013AD040
:1003B000921100E08909C3098B4201D3CB01C01A15
:1003C000524183098B4201D38B01C01A5241430928
:1003D0008B4201D34B01C01A524103098B4201D316
:1003E0000B01C01A5241C3088B4201D3CB00C01A83
:1003F000524183088B4201D38B00C01A5241D9D29B
:1004000043088B4201D34B00C01A5241411A00D21B
:100410000146634652415B10104601D34042002B17
:1004200000D54942704763465B1000D3404201B596
:100430000020C046C04602BD7047704770470000AC
:100440000246C80FC00781434B0030B54B405B00EC
:100450009B0D20D01923DB06C91801231B059942E7
:1004600020DB0324A40704251346AB400BD3002B49
:1004700004D1EB0613409B00E34204D4012464073B
:10048000002312195941FF231B0599420BD2C900C1
:100490000143500F09E0CB0204D501430803024396
:1004A00005D0054830BDFF21C905084330BD0846C9
:1004B00007210905884330BD0000C07FF0B50C4618
:1004C000871A9C410D46861A9D4103D2C01BA1414B
:1004D000D21963410D0D1F0DC94EEC1BAE435CD00C
:1004E0007F057F0D0026002F51D02D05AC46A94376
:1004F000DD020123ED0A1B051D4320231B1B24D411
:100500001746E740381871412F46E740CC199D4007
:100510002818314661410C0D27D161449A4013D50A
:100520000023401C594152000ED1400840000122D6
:100530004B005205D34207D305204007C14201D5E5
:10054000B04900E0B0493046F0BD6B00002A00D051
:1005500001229A181F23203C1B1B01D5002302E017
:10056000E540281871410C0DD7D001242405091944
:10057000C407CD0740084908E40F28436144002C14
:10058000D5D00024401C61419A40D0D1CDE76A0506
:10059000520DD9D1C90FC907D5E79C4D4E0000288F
:1005A00001D0012400E0002434195F00002A01D0AA
:1005B000012600E00026BE19954FAC420CD8AE4291
:1005C0000AD8B44206D001256D05EC42BCD01046D5
:1005D0001946F0BD9942FCD000203946F0BDF0B577
:1005E0001FB40C460F46811A9F412546861A9D412D
:1005F00006D20125ED076F40401ABC4152187B41DD
:10060000210D1E0D8D1BAC467D4D8D437ED0750595
:100610006D0D7CD00D05AE46AC431B031B0B794D15
:1006200052429D41202366469B1B14D31746F74038
:10063000381800260090744160462F460741E4199F
:1006400000989D402818664116D4714671189A404A
:1006500025D5012320E093182A466A415200002B39
:1006600000D0521C1E23203E9B1B002B61DD354118
:10067000EE1728186641E8D5001876415B1C9A40B1
:1006800000D3401C4B05F3181524E34010D3002B76
:1006900052D071467118D30FC01802D3491C05B04F
:1006A000F0BD0123DB079A42F9D140084000F6E78C
:1006B00001225205B21801D1002853D00123CC0ADF
:1006C000DB029943891E002A08D1020C03D0020CD8
:1006D0000004103902E00246002020390023550BA7
:1006E00005D112020823550B01D152010D23550CDF
:1006F00001D112011B1DD50C01D192009B1C150DBF
:1007000001D152005B1C2025EE1A01E02CE022E012
:100710000546F54015439840CA1AE10769181305C4
:10072000C918002ABBDA032040070818C10FC907FF
:100730000FE071466118B2E7F107400808437110F5
:1007400071444A000CD001235B059A42A7D2C90F1D
:10075000C9070020A3E74905490D26D1002001E083
:100760000028F4D100219AE7284D6600002801D026
:10077000012100E0002171185F00002A01D001264C
:1007800000E00026BE19224FA94210D8AE420ED872
:10079000B14208D001256D05E94206D01946A802EC
:1007A000414010467BE79C4201D0214677E700207C
:1007B000394674E710B50C465C4005D50124E407C2
:1007C0006340FFF70CFF10BDFFF778FE10BD30B49B
:1007D0000C465C4004D50124E407634030BC6DE660
:1007E00030BCFCE670B50124E40761400D465D4075
:1007F00002D4FFF763FE70BD6340FFF7F0FE70BDEB
:10080000FF0700000000F0FF0000F07F0000E0FFA5
:100810000000F87FF0B5F94D0C091E092C402E4060
:100820002F468BB0A7437DD0B543FCD0002E7AD0A5
:10083000002CFCD00D465D40ED0F2543AC1BFF2581
:10084000AD0464190894C502440DC9022143500D3A
:10085000DC0204430120C00701430443D20201919A
:10086000200C110C00958C46010423468B430A9101
:1008700061460904E24D8A430991010A7D44491900
:100880008039097805464D4301266D18F605751B1C
:100890006943C90C640B891C4C436418B5012C1BBB
:1008A000250C2E04B4434C434D43210C691889098F
:1008B0000591009DE90701D00121C90704912C464B
:1008C00001996708CD072F434C08059DE10B4D4367
:1008D0002D0C29466646754302950D4645432E4626
:1008E000029D7D1BB44100950D465D4301942C0C87
:1008F0002F040D465543AE462D0C3D4302950394FF
:100900007546049C2D04641B049406D2029C039D2E
:10091000641C002675410395029401AC70CC009FC5
:100920007D1B01E03EE162E1B441090400950791BD
:1009300001940599A4086143090C0C464443650BD6
:10094000E7040C4666467443A646640B3C43039595
:1009500002947446049DE4042C1B049406D2029C69
:10096000039D641C002675410395029401AC70CC74
:10097000009F7D1BB44101940C465C430095650FBC
:10098000E7000C465443A646640F3C43039502948B
:100990007446049DE4002C1B049406D2029C039D23
:1009A000641C002675410395029401AC70CC009F35
:1009B0007D1BB441AE09AF06049DC900AD092F43AC
:1009C000049DA406AD060495079D3443691807915C
:1009D000059DE10B4D432D0C294666467543029556
:1009E0000D4645432E46029D7D1BB44100950D46A4
:1009F0005D4301942C0C2F040D465543AE462D0C3F
:100A00003D43029503947546049C2D04641B049495
:100A100006D2029C039D641C002675410395029436
:100A200001AC70CC009F7D1BB44101948C050694F1
:100A3000079C890A611800950791019C0599A408F3
:100A40006143090C0D464543680BEF040D466446AF
:100A500065436C0B3C43049FED047D1BAC4602D206
:100A60000025641C6841009E019D371B8541084696
:100A7000584301950C46460FC5005443600F284368
:100A80006546E4002C1B02D20025401C6E41019DEE
:100A90003F1AB5412846BD09800628438446A0096F
:100AA000BF064E020699A40676180743079D00204C
:100AB00068410A99079019430020099B00906046FD
:100AC000FF1913434041E20F64003A43A446044631
:100AD000D71A8C41A04203D90120009020463A4603
:100AE000C70F941840416246D20F22436446640007
:100AF0000494009CBE466400D71AA446044602979C
:100B00008C417746002F01D1A04204D96046401C99
:100B10008446029A2046C40FA64694184041049A7F
:100B20000546D20F224364466400D31A8D417146B4
:100B3000002901D1A84202D928461A46641C104354
:100B40000122002800D0164361020020079B89196A
:100B500004465C410223002C02DB49181346644121
:100B6000089DCE0A2D145D194B056705E10A2C0579
:100B70000D1908993E43C9076940002B08D09340DE
:100B800006D30022761C5141002B01D17608760055
:100B90001C4A002D43DB154241D0AA433FD03046CA
:100BA0000BB0F0BD06180D464D41174C7642AC41D6
:100BB0001AD395181C465C41134A6D42A24113D3C7
:100BC000012252054C00D4420AD15C00D4420BD021
:100BD0004B4002D592021143E2E749004908DFE7A2
:100BE0005940C90FC90718E000200849D8E705484F
:100BF00001420DD10342F7D0F2E700000000FF07E9
:100C0000291D00000000F07F0000E0FF0000F87FD9
:100C1000114859400143C01241400020C0E7012360
:100C2000089A9B069A4205DC032252078918C90FCD
:100C3000C907B5E7052252078918074A1143D2129E
:100C40005140ADE770B515461C4602460B46284696
:100C50002146FFF7DFFD70BDFFFFFF7F0346CA029D
:100C6000400D10B510430A1504D00124E4072043B9
:100C7000002A05DB0A4CA21A04D4D040FF2A00DD6A
:100C8000002010BD4A00002B01D0012000E0002010
:100C9000101801225205D042F2D8C817C04310BD27
:100CA0001E0400000121C9050123411842001B0652
:100CB000D3185B0E0AD0C1100722D206891840074C
:100CC0005242D14201D5520089187047090208D515
:100CD0000146002A03D0C10FC90700207047104603
:100CE0007047420202D000200249704707210905DF
:100CF0000143F4E70000F87FF0B5FF252D04C60995
:100D0000C209FF2704462E400137CB093E43484025
:100D10002A402B400746002A6BD0002B69D0AA42FC
:100D200067D0AB4265D0002800DA32460125ED05D8
:100D300029432C4309022002090AD21A4B0C7F24B2
:100D4000E31A434C000A7C44E35C7D24240412191A
:100D500014145B00A218884201D3521C00E040002A
:100D600049420C465C4324115C43DB016415E318E3
:100D7000040A5C43C502200D0C4644436419250A4D
:100D80005D432303EC0C0D46654300030019EB188B
:100D90004C42A34201D35B18401CD4052018002B01
:100DA00007D05B00C91804D3401C002901D14008BA
:100DB00040003F2189048A4209D3002A08DC110639
:100DC000090F04D0032149074018C00FC007F0BD28
:100DD00001224100120689187F2252069142F6D262
:100DE00005214907C84201D59010F0BDFF20C0057C
:100DF000F0BD002F00DA32461648AA4207D2AB42B5
:100E000005D21902090E17D0F80FC007F0BDFF2553
:100E100063002D06AB42F9D84900A942F6D8AB428F
:100E200001D1A942F2D0A94201D1002101E0610023
:100E30004908D0050843F0BD1102090EFBD0FF2080
:100E40000243D005F0BD0A460146104654E70000B3
:100E5000DF1800000000C07F1F22030C02D10F2208
:100E600000041CD0030E01D10002083A030F01D187
:100E70000001121F830F01D18000921E002801DBA8
:100E80004000521ED20551180212511819229040EA
:100E900004D3491C002801D149084900084670477D
:100EA000C10FC90700D04042012292071143D3E786
:100EB00001218907D0E7754600F024F8AE46050009
:100EC00069465346C008C000854618B020B5FFF7F4
:100ED00053F960BC00274908B6460026C0C5C0C506
:100EE000C0C5C0C5C0C5C0C5C0C5C0C5403D49001E
:100EF0008D46704710B50446C046C0462046FFF7F1
:100F00002AF910BD00487047280000200149182028
:100F1000ABBEFEE7260002007047000010B50020BF
:100F2000002806D001210904401A1BD0401A51D1D3
:100F300034E0494849490860002000F013FC484863
:100F40000068000C46490988C94389B2884202D129
:100F50004348006800E030204406640E204600F05C
:100F60000DFC50E03F483D490860002000F0FAFBCE
:100F70003B484038C06B000C39494039898FC94320
:100F800089B2884203D136484038C06B00E02A203D
:100F90004406640E204600F0F1FB34E032482F494D
:100FA0000860002000F0DEFB2D484038806B000C0C
:100FB0002B494039098FC94389B2884203D1284857
:100FC0004038806B00E027204406640E204600F085
:100FD000D5FB18E0204821490860002000F0C2FB42
:100FE0001F480068000C1E490988C94389B288421D
:100FF00002D11B48006800E030204406640E204601
:1010000000F0BCFB00BF00BF00201849C968C90838
:10101000C9000143154AD16000BF00BF1146C9682D
:101020000722120291430143104AD16000BF00BF62
:101030001146C96807221204914301430B4AD1604B
:1010400000BF00BF1146C9680722D2049143014383
:10105000064AD16000BF10BD00127A0004000020D3
:1010600040FBFF1F0024F40000366E010002004028
:1010700010B5044603E07D20C00000F005F82046CE
:10108000641E0028F7D110BD70B506460F480068F1
:10109000314601F025FA04460D4A0023FFF77EF899
:1010A000064601200006864200D900E0304606468A
:1010B000701E084948610020886100BF054800692A
:1010C000C003C00F0028F9D070BD0000040000204C
:1010D00040420F0000E000E000B585B014216846F2
:1010E000FFF7FBF80120C0020090022001900020D1
:1010F000029003906946074800F010F80420064962
:101100000968090909010143034A116000BF05B0DC
:1011100000BD0000C00C0040000E0040F0B50246CB
:101120000B460024002100BF634882420BD0624876
:101130004030824207D060488030824203D05E480F
:10114000C030824201D1012000E00020002801D1FE
:1011500000BFFEE700BF00BF1868002805D9574D43
:101160001868A84201D8012000E00020002801D121
:1011700000BFFEE700BF00BF5868032808D05868CA
:10118000002805D05868012802D05868022801D1EB
:10119000012000E00020002801D100BFFEE700BFD1
:1011A00000BF9868012802D09868002801D101206A
:1011B00000E00020002801D100BFFEE700BF00BF13
:1011C000D868002802D0D868012801D1012000E0A9
:1011D0000020002801D100BFFEE700BF8020384D6D
:1011E000AD6A0543364EB56200BF5FE00125A540FC
:1011F000186828400146002957D09868002806D171
:1012000000BF90688DB2A843906000BF06E000BFA9
:1012100090688DB22843906000BF00BFD868002856
:1012200006D000BF50688DB22843506000BF06E072
:1012300000BF50688DB2A843506000BF00BF58681F
:10124000032806D100BF906A8DB22843906200BF88
:1012500000BF5868022810D11869012806D100BFC4
:10126000106A8DB22843106200BF06E000BF106A0A
:101270008DB2A843106200BF00BF5868002806D195
:1012800000BF10688DB22843106000BF00BF5868CF
:10129000D5680E464E437700F619B5430E464E43C9
:1012A00046433543D56000BF00BF641C1868E0406A
:1012B00000289BD10120F0BD000C0040FFFF000082
:1012C0000002004082698BB21A43826170470000BD
:1012D000F0B587B0054600BF3C48006808210840CB
:1012E000002802D0082804D101E0022601E00426EB
:1012F00000BF00BF002D64D0642D62D8334800F0D9
:10130000F1F8002804D002281ED0042856D139E074
:10131000A90071430846FFF7CBFD0746FFF7C2FC63
:1013200002460B460191009000202949FFF772FA0E
:101330000022284B03910290FFF73CFA059104909C
:10134000FFF78CFC04463BE02946062251437143DB
:101350000846FFF7ADFD0746FFF7A4FC02460B4623
:101360000191009000201A49FFF754FA0022194B0E
:1013700003910290FFF71EFA05910490FFF76EFCAF
:1013800004461DE0E90071430846FFF791FD07465A
:10139000FFF788FC02460B460191009000200C49A3
:1013A000FFF738FA00220B4B03910290FFF702FA85
:1013B00005910490FFF752FC044601E0202400BF91
:1013C00000E02024E0B207B0F0BD0000000C0140B6
:1013D0000000E0400000E03F082903D8026D0A4306
:1013E000026502E0426D0A4342657047426D0A435E
:1013F00042657047F1B584B0374800F073F80028B3
:1014000004D002281BD004284DD133E000BF32485D
:101410008068C0B2C0017D21C90048430190FFF738
:1014200047FD0746FFF73EFC054600222B4BFFF722
:10143000F1F903910290FFF703F8044636E000BF8C
:1014400025488068C0B20621484340017D21C9007B
:1014500048430190FFF72CFD0746FFF723FC0546A4
:1014600000221E4BFFF7D6F903910290FEF7E8FF2A
:1014700004461BE000BF18488068C0B200027D210E
:10148000C90048430190FFF713FD0746FFF70AFC28
:1014900005460022114BFFF7BDF903910290FEF7BC
:1014A000CFFF044602E0002005B0F0BD00BF049865
:1014B000FFF7FEFC21460190FFF71EFC0746FFF7F1
:1014C000F1FB05460022064BFFF774F903910290E9
:1014D000FFF7C4FBE8E70000000C01400000E0401B
:1014E0000000E03F014608680622104070470000F7
:1014F00070B505460C4600BF9448854201D10120D5
:1015000000E00020002801D100BFFEE700BF00BFBF
:10151000206800280DD0012109042068884208D0E5
:1015200049002068884204D00321090420688842C9
:1015300001D1012000E00020002801D100BFFEE71A
:1015400000BF00BF0121C9036068884201D10120AA
:1015500000E00020002801D100BFFEE700BF00BF6F
:10156000A068002849D0FF210131A068884244D0FA
:101570004900A068884240D003210902A06888423F
:101580003BD001218902A068884236D0052109029A
:10159000A068884231D003214902A06888422CD03B
:1015A00007210902A068884227D00121C902A0684A
:1015B000884222D009210902A06888421DD0052155
:1015C0004902A068884218D00B210902A06888420D
:1015D00013D003218902A06888420ED00D21090290
:1015E000A068884209D007214902A068884204D037
:1015F0000F210902A068884201D1012000E00020EB
:10160000002801D100BFFEE700BF00BFE06800284E
:1016100002D0E068202801D1012000E0002000284D
:1016200001D100BFFEE700BF00BF2069002802D043
:101630002069082801D1012000E00020002801D104
:1016400000BFFEE700BF00BF6069002805D06069E9
:10165000022802D06069042801D1012000E00020A6
:10166000002801D100BFFEE700BF08203849C96A41
:101670000143374AD16200BF206834490968032218
:10168000120491430143314A116000BF6068114662
:1016900009680122D203914301432C4A116000BF23
:1016A000A068114609680F22120291430143274A9C
:1016B000116000BFE0681146096820229143014390
:1016C000224A116000BF206911460968082291432F
:1016D00001431E4A116000BF606911460968062275
:1016E00091430143194A116000BFA069FFF7F0FD63
:1016F000064616488068000A000230431349886095
:1017000000BFE069FFF776FE06461048C068000A91
:10171000000230430D49C86000BF206AFFF76AFE2F
:1017200006460A48C068FF2109028843310208437F
:101730000649C86000BF00BF084600680121084391
:101740000249086000BF012070BD0000000C01408C
:101750000002004030B50346243394001C59950024
:10176000595130BD044909690F22120491430143C4
:10177000014A1161704700000002004003494969B5
:10178000C909C9010143014A516170470002004083
:1017900010B50446012C1ED100221E491E48FFF739
:1017A000D9FF01221B491C48FFF7D4FF0222194927
:1017B0001948FFF7CFFF032216491748FFF7CAFF62
:1017C000042214491448FFF7C5FF052211491248A5
:1017D000FFF7C0FF1DE0002211460F48FFF7BAFFD8
:1017E000012200210C48FFF7B5FF022200210A4820
:1017F000FFF7B0FF032200210748FFF7ABFF0422E9
:1018000000210548FFF7A6FF052200210248FFF747
:10181000A1FF10BDFFFF7F00000C014070B5044622
:101820000D461646012E0BD1601E80000C4908584B
:10183000691E8A401043611E8900094A50500BE01E
:10184000601E800006490858691E01228A409043A4
:10185000611E8900024A505000F052FC70BD000029
:101860000800002070B506460825FAE30A21304634
:10187000FEF735FDFE48445C0A213046FEF72FFD99
:1018800006462846691ECDB2030000F041FE098BD2
:10189000F7F6F5F4F3F28C068B00E007C00F002892
:1018A00007D0F4484068012189020843F1494860A3
:1018B00006E0F0484068012189028843ED4948600C
:1018C00002202040002807D0EA48806801218902D0
:1018D0000843E849886006E0E648806801218902FB
:1018E0008843E449886004202040002807D0E1486C
:1018F000C068012189020843DE49C86006E0DD486E
:10190000C068012189028843DA49C8600820204064
:10191000002807D0D7480069012149020843D5496A
:10192000086106E0D3480069012149028843D14992
:10193000086110202040002807D0CE48C06801214F
:1019400049020843CB49C86006E0CA48C068012183
:1019500049028843C749C86020202040002807D09A
:10196000C4484068012149020843C249486006E072
:10197000C0484068012149028843BE494860402070
:101980002040002807D0BB48806801214902084355
:10199000B849886006E0B748806801214902884359
:1019A000B4498860A1E3E007C00F002807D0B14820
:1019B0004068FF2101310843AE49486006E0AD4868
:1019C0004068FF2101318843AA4948600220204035
:1019D000002807D0A7488068FF2101310843A549A6
:1019E000886006E0A3488068FF2101318843A1494F
:1019F000886004202040002807D09E48C068FF214E
:101A0000013108439B49C86006E09A48C068FF213D
:101A1000013188439749C86008202040002806D03B
:101A200094480069802108439249086105E0914883
:101A30000069802188438F490861102020400028D8
:101A400006D08C48C068802108438A49C86005E0F8
:101A50008848C068802188438649C860202020408B
:101A600000280CD0834840688021084381494860A1
:101A70000BE01CE093E01DE1A2E127E2ACE27D482F
:101A80004068802188437B494860402020400028EE
:101A900006D078488068802108437649886005E050
:101AA0007448806880218843724988601DE3E0079C
:101AB000C00F002806D06F484068402108436D4998
:101AC000486005E06B4840684021884369494860A8
:101AD00002202040002806D0664880684021084344
:101AE0006449886005E06348806840218843614913
:101AF000886004202040002806D05E48C06840214D
:101B000008435C49C86005E05A48C06840218843E2
:101B10005849C86008202040002806D05548006970
:101B2000202108435349086105E0524800692021FB
:101B300088435049086110202040002806D04D48B5
:101B4000C068202108434B49C86005E04948C06887
:101B5000202188434749C86020202040002806D023
:101B600044484068202108434249486005E0414814
:101B70004068202188433F49486040202040002899
:101B800006D03C488068202108433A49886005E037
:101B9000384880682021884336498860A5E2E007FC
:101BA000C00F002807D0334840680121490308438B
:101BB0003049486006E02F484068012149038843C6
:101BC0002C49486002202040002807D0294880681E
:101BD0000121490308432749886006E025488068B9
:101BE00001214903884323498860042020400028BC
:101BF00007D02048C0680121490308431D49C86037
:101C000006E01C48C0680121490388431949C8609F
:101C100008202040002807D01648006901218903C8
:101C200008431449086106E012480069012189034C
:101C300088431049086110202040002807D00D4833
:101C4000C0680121890308430A49C86006E00948C1
:101C5000C0680121890388430649C86020202040CC
:101C600000280CD00348406801218903084303E0A1
:101C70009825000008000020FA49486006E0F9486D
:101C80004068012189038843F6494860402020408C
:101C9000002807D0F3488068012189030843F149EF
:101CA000886006E0EF488068012189038843ED4998
:101CB00088601AE2E007C00F002807D0E9484068B2
:101CC0000121C9030843E749486006E0E548406848
:101CD0000121C9038843E3494860022020400028CD
:101CE00007D0E04880680121C9030843DD498860C6
:101CF00006E0DC4880680121C9038843D94988602F
:101D000004202040002807D0D648C0680121C9031C
:101D10000843D449C86006E0D248C0680121C9031D
:101D20008843D049C86008202040002807D0CD480B
:101D30000069012109040843CA49086106E0C9484D
:101D40000069012109048843C64908611020204028
:101D5000002807D0C348C068012109040843C149CD
:101D6000C86006E0BF48C068012109048843BD4936
:101D7000C86020202040002807D0BA4840680121D0
:101D800009040843B749486006E0B64840680121A5
:101D900009048843B349486040202040002807D008
:101DA000B0488068012109040843AE49886006E014
:101DB000AC488068012109048843AA49886094E1FD
:101DC000E007C00F002807D0A64840680121490459
:101DD0000843A449486006E0A2484068012149043C
:101DE0008843A049486002202040002807D09D4831
:101DF00080680121490408439A49886006E09948AF
:101E00008068012149048843964988600420204065
:101E1000002807D09348C06801214904084391492C
:101E2000C86006E08F48C0680121490488438D4995
:101E3000C86008202040002807D08A480069012196
:101E4000890408438749086106E086480069012142
:101E5000890488438349086110202040002807D066
:101E60008048C0680121890408437E49C86006E0B3
:101E70007C48C0680121890488437A49C8602020D1
:101E80002040002807D07748406801218904084392
:101E90007449486006E0734840680121890488431A
:101EA0007049486040202040002807D06D48806875
:101EB0000121890408436B49886006E0694880680D
:101EC000012189048843674988600EE1E007C00F5B
:101ED000002807D0634840680121C90408436149CC
:101EE000486006E05F4840680121C90488435D49B5
:101EF000486002202040002807D05A48806801210D
:101F0000C90408435749886006E0564880680121A3
:101F1000C90488435349886004202040002807D022
:101F20005048C0680121C90408434E49C86006E012
:101F30004C48C0680121C90488434A49C860082048
:101F40002040002807D047480069012109050843BF
:101F50004449086106E043480069012109058843B6
:101F60004049086110202040002807D03D48C06843
:101F70000121090508433B49C86006E03948C068AB
:101F80000121090588433749C860202020400028E6
:101F900007D03448406801210905084331494860A9
:101FA00006E0304840680121090588432D49486012
:101FB00040202040002807D02A48806801210905D8
:101FC00008432849886006E0264880680121090501
:101FD00088432449886088E0E007C00F002807D0C4
:101FE000204840680121490508431E49486006E031
:101FF0001C4840680121490588431A49486002206D
:102000002040002807D0174880680121490508436F
:102010001449886006E01348806801214905884317
:102020001049886004202040002807D00D48C0686F
:102030000121490508430B49C86006E00948C0680A
:102040000121490588430749C8600820204000282D
:102050000AD0044800690121890508430149086143
:1020600009E043E0080000202448006901218905B7
:1020700088432249086110202040002807D01F48CB
:10208000C0680121890508431C49C86006E01B4857
:10209000C0680121890588431849C8602020204074
:1020A000002807D0154840680121890508431349D5
:1020B000486006E0114840680121890588430F49BE
:1020C000486040202040002807D00C48806801214B
:1020D000890508430949886006E0084880680121AD
:1020E000890588430549886000BF00BF002D01D0E5
:1020F000FFF7BCFB00F004F870BD000008000020F2
:1021000010B51848002201681748FFF723FB15484F
:10211000012241681448FFF71DFB12480222816822
:102120001148FFF717FB0F480322C1680E48FFF75D
:1021300011FB0C48042201690B48FFF70BFB09480F
:10214000052241690848FFF705FB06480622816918
:102150000548FFF7FFFA03480722C1690248FFF765
:10216000F9FA10BD08000020000C014000B58FB046
:1021700063480A9003200B9000200C900D900AA950
:102180006048FEF7CBFF60480A9003200B900AA935
:102190005C484030FEF7C2FF5C480A9003200B9079
:1021A0000AA958488030FEF7B9FF01200A900320A1
:1021B0000B900AA95348C030FEF7B0FF20200490CE
:1021C00005204002039002200690800302904020E8
:1021D0000790800201900020059001A94C48FFF76C
:1021E00087F901214A48FFF7F7F802214848FFF72D
:1021F000F3F804214648FFF7EFF808214448FFF7B9
:10220000EBF8012109074248FFF7E6F801214907E9
:102210003F48FFF7E1F801213D48FFF7E7F80221C9
:102220003B48FFF7E3F804213948FFF7DFF80821BE
:102230003748FFF7DBF810213548FFF7D7F82021A2
:102240003348FFF7D3F840213148FFF7CFF880211A
:102250002F48FFF7CBF8FF2101312D48FFF7C6F8D3
:10226000012149022A48FFF7C1F8012189022848C3
:10227000FFF7BCF80121C9022548FFF7B7F8012193
:1022800009032348FFF7B2F8012149032048FFF76B
:10229000ADF8012189031E48FFF7A8F80121C90301
:1022A0001B48FFF7A3F8012109041948FFF79EF81E
:1022B000012149041648FFF799F8012189041448BF
:1022C000FFF794F80121C9041148FFF78FF80121A5
:1022D00009050F48FFF78AF8012149050C48FFF767
:1022E00085F8012189050A48FFF780F800BF0848F2
:1022F0000068012108430649086000BF0FB000BD17
:102300003F070000000C0040F06F0000F01F0000CD
:10231000000C014010B586B00524142101A8FDF77A
:10232000DCFF01211248FEF7CDFF01200190029051
:1023300000200390049001A90D48FEF7EFFE10E085
:1023400001210B48FEF7BEFF6420FEF791FE01203D
:10235000074949690143064A516100BF6420FEF7FD
:1023600087FE2046611ECCB20028E9D106B010BD20
:10237000800C004000B585B014216846FDF7ADFF24
:1023800004201149896A01430F4A916200BF00206D
:102390000E49096B490A490201430C4A116300BF07
:1023A00004200949896A8143074A916200BFFF20DE
:1023B000813000900220019001200390694604487A
:1023C000FEF7ACFE05B000BD000200400010014069
:1023D000C00C0040704770472E490868010C01404E
:1023E000002903D14106490E2B4A51612949486809
:1023F000010C4140C9B2FF2904D14106490E264AC9
:102400004032916223494039086A010C4140C9B207
:10241000FF2902D1C1B2204A116200211E4A9161F6
:1024200005214906D1601146896A802211431A4A62
:1024300091621A49C9680F2292041143174AD16068
:102440000021154A51621146496A052212021143C0
:10245000114A51627D20000100E0401E0028FCD19D
:10246000AA210D4A91631146C968920411430A4A90
:10247000D1600B49096801221143094A11601146D4
:102480004968FE221140064A51600321D20451607E
:102490007047000040FBFF1F00020040C00C0040DE
:1024A00000A80140C0200749C968C02291430143E8
:1024B000044AD16000BF0448006901210843024971
:1024C000086170470002004000E000E010B5FEF730
:1024D00025FDFFF7E7FFFFF71DFFFEF7FDFD10BD30
:1024E000F8B582B28BB2040C0D0C10465843002193
:1024F00026465E43370C36048019794116466E43F2
:10250000370C36048019794126466E438919F8BD87
:1025100030B47446641E2578641CAB4204D3635DFA
:102520005B00E31830BC18471D46F8E7FFF722FFB1
:10253000FFF751FFFFF74EFFFFF7C8FFFFF716FE4B
:102540000120FFF725F91148FEF792FD0020FFF763
:102550001FF90E48FEF78CFD16E001200C490969B1
:1025600041400B4A116100BF012203211046FFF7D1
:1025700055F9084908780978491C064B1970FFF786
:1025800071F96420FEF774FDE7E70000B80B000066
:10259000800C0040000000203F065B4F666D7D0709
:1025A0007F6F777C395E79710080807F7E7D7C7B58
:1025B0007A7978777676757473727171706F6E6EE2
:1025C0006D6C6C6B6A6A696868676666656464638B
:1025D0006362616160605F5F5E5E5D5D5C5C5B5B12
:1025E0005A5A595958585757565655555554545381
:1025F0005352525251515050504F4F4F4E4E4D4DDD
:102600004D4C4C4C4B4B4B4A4A4A49494948484827
:102610004747474746464645454544444444434367
:1026200043434242424241414181828384858687BD
:1026300088898B8C8D8E8F919293959697999A9C81
:102640009D9FA0A2A3A5A7A8AAACAEB0B2B3B5B7F0
:10265000B9BCBEC0C2C5C7C9CCCED1D4D7D9DCDFC6
:10266000E2E6E9ECF0F3F7FAFE0000008C26000049
:102670000000002008000000040100009426000073
:102680000800002080100000200100000000000071
:042690000000000046
:04000005000000C136
:00000001FF
