:020000040000FA
:1000000068100020650100006D0100006F01000014
:1000100000000000000000000000000000000000E0
:10002000000000000000000000000000710100005E
:1000300000000000000000007301000075010000D6
:1000400077010000770100007701000077010000D0
:1000500077010000770100007701000077010000C0
:1000600077010000770100007701000077010000B0
:1000700077010000770100007701000077010000A0
:100080007701000077010000770100007701000090
:100090007701000077010000770100007701000080
:1000A0007701000077010000770100007701000070
:1000B0007701000077010000770100007701000060
:1000C00000F002F800F03EF80CA030C80838241800
:1000D0002D18A246671EAB4654465D46AC4201D180
:1000E00000F030F87E460F3E0FCCB6460126334274
:1000F00000D0FB1AA246AB46334318470C0B000056
:100100002C0B0000103A02D378C878C1FAD85207F5
:1001100001D330C830C101D504680C6070470000BD
:100120000023002400250026103A01D378C1FBD813
:10013000520700D330C100D50B6070471FB51FBDFB
:1001400010B510BD00F0CEF81146FFF7F7FF00F034
:1001500041FD00F0E6F803B4FFF7F2FF03BC00F046
:10016000EDF800000748804707480047FEE7FEE734
:10017000FEE7FEE7FEE7FEE704480549054A064BB1
:1001800070470000490A0000C1000000680000201C
:10019000681000206808002068080020FEB50546A9
:1001A00010460C46184373D0AE468C460020AD1A5C
:1001B00001469C4167D36646002701243D46B61A96
:1001C0009D4102D313463A462124654676462F04C4
:1001D000360C3E432D0CB61A9D4104D3150C1B045E
:1001E0002B4312041034654676462F06360A3E43EA
:1001F0002D0AB61A9D4104D3150E1B022B43120281
:100200000834654676462F0736093E432D09B61A4F
:100210009D4104D3150F1B012B431201241D65467C
:100220007646AF07B6083E43AD08B61A9D4104D3E3
:10023000950F9B002B439200A41C65467646EF0762
:1002400076083E436D08B61A9D411AD392185B4159
:10025000641C16E00018764665464941B71A9D4170
:100260000191009009D36046B11A98418E468446A8
:10027000009801990025401C6941DD0752082A4376
:100280005B08641EE6D57246634603B0F0BDFFE727
:1002900000200146C046C0462A462346F5E701E055
:1002A00004C0091F0429FBD28B0701D50280801CE2
:1002B000C90700D00270704700290BD0C30702D0D5
:1002C0000270401C491E022904D3830702D5028014
:1002D000801C891EE3E70022EEE70022DFE770477B
:1002E00070477047754600F025F8AE460500694630
:1002F0005346C008C000854618B020B5FFF73CFF44
:1003000060BC00274908B6460026C0C5C0C5C0C5A8
:10031000C0C5C0C5C0C5C0C5C0C5403D49008D46AB
:10032000704710B50446C046C0462046FFF713FF8D
:1003300010BD000000487047080000200149182047
:10034000ABBEFEE7260002007047000010B500209B
:10035000002806D001210904401A1BD0401A51D1AF
:1003600034E0494849490860002000F0F9F948485C
:100370000068000C46490988C94389B2884202D105
:100380004348006800E030204406640E204600F038
:10039000F3F950E03F483D490860002000F0E0F9E3
:1003A0003B484038C06B000C39494039898FC943FC
:1003B00089B2884203D136484038C06B00E02A2019
:1003C0004406640E204600F0D7F934E032482F4945
:1003D0000860002000F0C4F92D484038806B000C04
:1003E0002B494039098FC94389B2884203D1284833
:1003F0004038806B00E027204406640E204600F061
:10040000BBF918E0204821490860002000F0A8F955
:100410001F480068000C1E490988C94389B28842F8
:1004200002D11B48006800E030204406640E2046DC
:1004300000F0A2F900BF00BF00201849C968C90830
:10044000C9000143154AD16000BF00BF1146C96809
:100450000722120291430143104AD16000BF00BF3E
:100460001146C96807221204914301430B4AD16027
:1004700000BF00BF1146C9680722D204914301435F
:10048000064AD16000BF10BD00127A0000000020B3
:1004900040FBFF1F0024F40000366E010002004004
:1004A00010B5044603E07D20C00000F005F82046AA
:1004B000641E0028F7D110BD70B506460F480068CD
:1004C000314600F06FFB04460D4A0023FFF766FE3D
:1004D000064601200006864200D900E03046064666
:1004E000701E084948610020886100BF0548006906
:1004F000C003C00F0028F9D070BD0000000000202C
:1005000040420F0000E000E000B585B014216846CD
:10051000FFF7E3FE0120C0020090022001900020BE
:10052000029003906946074800F040F8042006490D
:100530000968090909010143034A116000BF05B0B8
:1005400000BD0000C00C0040000E004000B587B0A8
:10055000182101A8FFF7C1FE002001900290802021
:10056000039000216846017404200590012168462B
:10057000017601A90B4800F00FF90120002805DBE6
:10058000C206D20E01219140074A116000BF00BF90
:1005900004484068012108430249486000BF07B091
:1005A00000BD000024A8014080E100E0F0B5024653
:1005B0000B460024002100BF634882420BD06248F2
:1005C0004030824207D060488030824203D05E488B
:1005D000C030824201D1012000E00020002801D17A
:1005E00000BFFEE700BF00BF1868002805D9574DBF
:1005F0001868A84201D8012000E00020002801D19D
:1006000000BFFEE700BF00BF5868032808D0586845
:10061000002805D05868012802D05868022801D166
:10062000012000E00020002801D100BFFEE700BF4C
:1006300000BF9868012802D09868002801D10120E5
:1006400000E00020002801D100BFFEE700BF00BF8E
:10065000D868002802D0D868012801D1012000E024
:100660000020002801D100BFFEE700BF8020384DE8
:10067000AD6A0543364EB56200BF5FE00125A54077
:10068000186828400146002957D09868002806D1EC
:1006900000BF90688DB2A843906000BF06E000BF25
:1006A00090688DB22843906000BF00BFD8680028D2
:1006B00006D000BF50688DB22843506000BF06E0EE
:1006C00000BF50688DB2A843506000BF00BF58689B
:1006D000032806D100BF906A8DB22843906200BF04
:1006E00000BF5868022810D11869012806D100BF40
:1006F000106A8DB22843106200BF06E000BF106A86
:100700008DB2A843106200BF00BF5868002806D110
:1007100000BF10688DB22843106000BF00BF58684A
:10072000D5680E464E437700F619B5430E464E4344
:1007300046433543D56000BF00BF641C1868E040E5
:1007400000289BD10120F0BD000C0040FFFF0000FD
:100750000002004082698BB21A4382617047000038
:10076000044909690F22120491430143014A1161AE
:10077000704700000002004003494969C909C901E6
:100780000143014A5161704700020040016808229C
:10079000114301607047000070B505460C46002605
:1007A00000BF7648854201D1012000E000200028EA
:1007B00001D100BFFEE700BF00BF2068002802D0C3
:1007C0002068042801D1012000E00020002801D188
:1007D00000BFFEE700BF00BF6068002808D0606867
:1007E000012805D06068022802D06068032801D182
:1007F000012000E00020002801D100BFFEE700BF7B
:1008000000BFA06800282CD0A068102829D0A068BC
:10081000202826D0A068302823D0A068402820D0E7
:10082000A06850281DD0A06860281AD0A068702841
:1008300017D0A068802814D0A068902811D0A06894
:10084000A0280ED0A068B0280BD0A068C02808D07F
:10085000A068D02805D0A068E02802D0A068F028C1
:1008600001D1012000E00020002801D100BFFEE7F7
:1008700000BF00BF207B002802D0207B012801D1CF
:10088000012000E00020002801D100BFFEE700BFEA
:1008900000BF2069012805D02069022802D0206904
:1008A000042801D1012000E00020002801D100BF70
:1008B000FEE700BF00BF207D002802D0207D012878
:1008C00001D1012000E00020002801D100BFFEE797
:1008D00000BF40202A49896A0143294A916200BF2A
:1008E00020682968042291430143296000BFA06861
:1008F0002968F02291430143296000BF606829689C
:10090000890889000143296000BF20691B490969E2
:10091000C908C9000143194A116100BF207B0128A1
:1009200006D100BF686802210843686000BF06E086
:1009300000BF686802218843686000BF00BF207D57
:10094000012803D12846FFF721FF06E000BF2868F1
:1009500008218843286000BF00BF2068042809D10F
:1009600000BF286808210840C008002802D1284696
:10097000FFF70CFF0126304670BD000024A801409F
:100980000002004010B586B00524142101A8FFF72D
:10099000A4FC01211248FFF7DDFE01200190029026
:1009A00000200390049001A90D48FFF7FFFD10E01F
:1009B00001210B48FFF7CEFE6420FFF771FD0120F7
:1009C000074949690143064A516100BF6420FFF7A6
:1009D00067FD2046611ECCB20028E9D106B010BDEB
:1009E000800C004000B585B014216846FFF775FC07
:1009F00004201149896A01430F4A916200BF002017
:100A00000E49096B490A490201430C4A116300BFB0
:100A100004200949896A8143074A916200BFFF2087
:100A20008130009002200190012003906946044823
:100A3000FFF7BCFD05B000BD000200400010014002
:100A4000C00C0040704770472E490868010C0140F7
:100A5000002903D14106490E2B4A516129494868B2
:100A6000010C4140C9B2FF2904D14106490E264A72
:100A70004032916223494039086A010C4140C9B2B1
:100A8000FF2902D1C1B2204A116200211E4A9161A0
:100A900005214906D1601146896A802211431A4A0C
:100AA00091621A49C9680F2292041143174AD16012
:100AB0000021154A51621146496A0522120211436A
:100AC000114A51627D20000100E0401E0028FCD147
:100AD000AA210D4A91631146C968920411430A4A3A
:100AE000D1600B49096801221143094A116011467E
:100AF0004968FE221140064A51600321D204516028
:100B00007047000040FBFF1F00020040C00C004087
:100B100000A80140C0200749C968C0229143014391
:100B2000044AD16000BF044800690121084302491A
:100B3000086170470002004000E000E00020114919
:100B40000870FFF703FD00BF01200F4989690143C9
:100B50000D4A916100BF3220FFF7A2FC00BF0B4895
:100B6000C06880210840C009002807D1012006493B
:100B700049690143044A516100BF00BF3220FFF7B9
:100B80008FFCE1E704000020800C004024A8014015
:100B900010B5FFF7DBFBFFF7BDFFFFF7F3FEFFF735
:100BA000B3FC10BDF8B582B28BB2040C0D0C10462C
:100BB0005843002126465E43370C3604801979419C
:100BC00016466E43370C36048019794126466E432B
:100BD0008919F8BDFFF706FFFFF735FFFFF732FF72
:100BE000FFF7D6FFFFF7AAFF0AE0012005490969D0
:100BF0004140044A116100BF7D20C000FFF750FC56
:100C0000F3E70000800C0040280C000000000020EA
:100C10000800000004010000300C00000800002063
:100C20006010000020010000000000000000000033
:04000005000000C136
:00000001FF
